{
  "contractName": "Voting",
  "abi": [
    {
      "inputs": [],
      "stateMutability": "nonpayable",
      "type": "constructor"
    },
    {
      "anonymous": false,
      "inputs": [
        {
          "indexed": false,
          "internalType": "uint256",
          "name": "candidateId",
          "type": "uint256"
        }
      ],
      "name": "VotedEvent",
      "type": "event"
    },
    {
      "inputs": [
        {
          "internalType": "uint256",
          "name": "",
          "type": "uint256"
        }
      ],
      "name": "candidates",
      "outputs": [
        {
          "internalType": "uint256",
          "name": "id",
          "type": "uint256"
        },
        {
          "internalType": "string",
          "name": "name",
          "type": "string"
        },
        {
          "internalType": "uint256",
          "name": "voteCount",
          "type": "uint256"
        },
        {
          "internalType": "string",
          "name": "photoUrl",
          "type": "string"
        }
      ],
      "stateMutability": "view",
      "type": "function",
      "constant": true
    },
    {
      "inputs": [],
      "name": "candidatesCount",
      "outputs": [
        {
          "internalType": "uint256",
          "name": "",
          "type": "uint256"
        }
      ],
      "stateMutability": "view",
      "type": "function",
      "constant": true
    },
    {
      "inputs": [],
      "name": "owner",
      "outputs": [
        {
          "internalType": "address",
          "name": "",
          "type": "address"
        }
      ],
      "stateMutability": "view",
      "type": "function",
      "constant": true
    },
    {
      "inputs": [
        {
          "internalType": "uint256",
          "name": "",
          "type": "uint256"
        }
      ],
      "name": "voters",
      "outputs": [
        {
          "internalType": "address",
          "name": "voterAddress",
          "type": "address"
        },
        {
          "internalType": "bool",
          "name": "registered",
          "type": "bool"
        },
        {
          "internalType": "bool",
          "name": "voted",
          "type": "bool"
        }
      ],
      "stateMutability": "view",
      "type": "function",
      "constant": true
    },
    {
      "inputs": [
        {
          "internalType": "string",
          "name": "_name",
          "type": "string"
        },
        {
          "internalType": "string",
          "name": "_photoUrl",
          "type": "string"
        }
      ],
      "name": "addCandidate",
      "outputs": [],
      "stateMutability": "nonpayable",
      "type": "function"
    },
    {
      "inputs": [
        {
          "internalType": "address",
          "name": "voterAddress",
          "type": "address"
        }
      ],
      "name": "isRegistered",
      "outputs": [
        {
          "internalType": "bool",
          "name": "",
          "type": "bool"
        }
      ],
      "stateMutability": "view",
      "type": "function",
      "constant": true
    },
    {
      "inputs": [
        {
          "internalType": "address",
          "name": "voterAddress",
          "type": "address"
        }
      ],
      "name": "hasVoted",
      "outputs": [
        {
          "internalType": "bool",
          "name": "",
          "type": "bool"
        }
      ],
      "stateMutability": "view",
      "type": "function",
      "constant": true
    },
    {
      "inputs": [
        {
          "internalType": "uint256",
          "name": "candidateId",
          "type": "uint256"
        }
      ],
      "name": "vote",
      "outputs": [],
      "stateMutability": "nonpayable",
      "type": "function"
    },
    {
      "inputs": [
        {
          "internalType": "uint256",
          "name": "candidateId",
          "type": "uint256"
        }
      ],
      "name": "getCandidate",
      "outputs": [
        {
          "internalType": "string",
          "name": "",
          "type": "string"
        },
        {
          "internalType": "uint256",
          "name": "",
          "type": "uint256"
        },
        {
          "internalType": "string",
          "name": "",
          "type": "string"
        }
      ],
      "stateMutability": "view",
      "type": "function",
      "constant": true
    }
  ],
  "bytecode": "0x60806040523480156200001157600080fd5b5033600260006101000a81548173ffffffffffffffffffffffffffffffffffffffff021916908373ffffffffffffffffffffffffffffffffffffffff160217905550620000cf6040518060400160405280600c81526020017f446f6e616c64205472756d7000000000000000000000000000000000000000008152506040518060400160405280601181526020017f2f6173736574732f7472756d702e706e670000000000000000000000000000008152506200015160201b60201c565b6200014b6040518060400160405280600d81526020017f4b616d616c6120486172726973000000000000000000000000000000000000008152506040518060400160405280601281526020017f2f6173736574732f6b616d616c612e706e6700000000000000000000000000008152506200015160201b60201c565b6200052f565b600260009054906101000a900473ffffffffffffffffffffffffffffffffffffffff1673ffffffffffffffffffffffffffffffffffffffff163373ffffffffffffffffffffffffffffffffffffffff1614620001e4576040517f08c379a0000000000000000000000000000000000000000000000000000000008152600401620001db906200038a565b60405180910390fd5b600060405180608001604052806001600354620002029190620003bd565b81526020018481526020016000815260200183815250908060018154018082558091505060019003906000526020600020906004020160009091909190915060008201518160000155602082015181600101908051906020019062000269929190620002b3565b5060408201518160020155606082015181600301908051906020019062000292929190620002b3565b50505060036000815480929190620002aa906200045a565b91905055505050565b828054620002c19062000424565b90600052602060002090601f016020900481019282620002e5576000855562000331565b82601f106200030057805160ff191683800117855562000331565b8280016001018555821562000331579182015b828111156200033057825182559160200191906001019062000313565b5b50905062000340919062000344565b5090565b5b808211156200035f57600081600090555060010162000345565b5090565b600062000372601883620003ac565b91506200037f8262000506565b602082019050919050565b60006020820190508181036000830152620003a58162000363565b9050919050565b600082825260208201905092915050565b6000620003ca826200041a565b9150620003d7836200041a565b9250827fffffffffffffffffffffffffffffffffffffffffffffffffffffffffffffffff038211156200040f576200040e620004a8565b5b828201905092915050565b6000819050919050565b600060028204905060018216806200043d57607f821691505b60208210811415620004545762000453620004d7565b5b50919050565b600062000467826200041a565b91507fffffffffffffffffffffffffffffffffffffffffffffffffffffffffffffffff8214156200049d576200049c620004a8565b5b600182019050919050565b7f4e487b7100000000000000000000000000000000000000000000000000000000600052601160045260246000fd5b7f4e487b7100000000000000000000000000000000000000000000000000000000600052602260045260246000fd5b7f4f6e6c79206f776e65722063616e2063616c6c20746869730000000000000000600082015250565b6114b3806200053f6000396000f3fe608060405234801561001057600080fd5b50600436106100935760003560e01c80633477ee2e116100665780633477ee2e1461011e57806335b8e820146101515780638da5cb5b14610183578063c3c5a547146101a1578063da58c7d9146101d157610093565b80630121b93f1461009857806309eef43e146100b457806326541b56146100e45780632d35a8a214610100575b600080fd5b6100b260048036038101906100ad9190610e8c565b610203565b005b6100ce60048036038101906100c99190610df7565b610481565b6040516100db9190610fd6565b60405180910390f35b6100fe60048036038101906100f99190610e20565b6105ac565b005b610108610703565b6040516101159190611096565b60405180910390f35b61013860048036038101906101339190610e8c565b610709565b60405161014894939291906110b1565b60405180910390f35b61016b60048036038101906101669190610e8c565b610859565b60405161017a93929190610ff1565b60405180910390f35b61018b610a6a565b6040516101989190610f84565b60405180910390f35b6101bb60048036038101906101b69190610df7565b610a90565b6040516101c89190610fd6565b60405180910390f35b6101eb60048036038101906101e69190610e8c565b610b68565b6040516101fa93929190610f9f565b60405180910390f35b60008111801561021857506000805490508111155b610257576040517f08c379a000000000000000000000000000000000000000000000000000000000815260040161024e90611056565b60405180910390fd5b61026033610a90565b61026e5761026d33610bd8565b5b61027733610481565b156102b7576040517f08c379a00000000000000000000000000000000000000000000000000000000081526004016102ae90611036565b60405180910390fd5b60005b6001805490508110156103d9573373ffffffffffffffffffffffffffffffffffffffff1660018281548110610318577f4e487b7100000000000000000000000000000000000000000000000000000000600052603260045260246000fd5b9060005260206000200160000160009054906101000a900473ffffffffffffffffffffffffffffffffffffffff1673ffffffffffffffffffffffffffffffffffffffff1614156103c657600180828154811061039d577f4e487b7100000000000000000000000000000000000000000000000000000000600052603260045260246000fd5b9060005260206000200160000160156101000a81548160ff0219169083151502179055506103d9565b80806103d1906112ed565b9150506102ba565b5060006001826103e991906111cc565b81548110610420577f4e487b7100000000000000000000000000000000000000000000000000000000600052603260045260246000fd5b90600052602060002090600402016002016000815480929190610442906112ed565b91905055507fe447c5464cb203c1da94b4db8588d3cbf313ce4a489122f6b88e87f465b2810e816040516104769190611096565b60405180910390a150565b600080600090505b6001805490508110156105a1578273ffffffffffffffffffffffffffffffffffffffff16600182815481106104e7577f4e487b7100000000000000000000000000000000000000000000000000000000600052603260045260246000fd5b9060005260206000200160000160009054906101000a900473ffffffffffffffffffffffffffffffffffffffff1673ffffffffffffffffffffffffffffffffffffffff16141561058e576001818154811061056b577f4e487b7100000000000000000000000000000000000000000000000000000000600052603260045260246000fd5b9060005260206000200160000160159054906101000a900460ff169150506105a7565b8080610599906112ed565b915050610489565b50600090505b919050565b600260009054906101000a900473ffffffffffffffffffffffffffffffffffffffff1673ffffffffffffffffffffffffffffffffffffffff163373ffffffffffffffffffffffffffffffffffffffff161461063c576040517f08c379a000000000000000000000000000000000000000000000000000000000815260040161063390611076565b60405180910390fd5b6000604051806080016040528060016003546106589190611176565b8152602001848152602001600081526020018381525090806001815401808255809150506001900390600052602060002090600402016000909190919091506000820151816000015560208201518160010190805190602001906106bd929190610cc2565b506040820151816002015560608201518160030190805190602001906106e4929190610cc2565b505050600360008154809291906106fa906112ed565b91905055505050565b60035481565b6000818154811061071957600080fd5b90600052602060002090600402016000915090508060000154908060010180546107429061128a565b80601f016020809104026020016040519081016040528092919081815260200182805461076e9061128a565b80156107bb5780601f10610790576101008083540402835291602001916107bb565b820191906000526020600020905b81548152906001019060200180831161079e57829003601f168201915b5050505050908060020154908060030180546107d69061128a565b80601f01602080910402602001604051908101604052809291908181526020018280546108029061128a565b801561084f5780601f106108245761010080835404028352916020019161084f565b820191906000526020600020905b81548152906001019060200180831161083257829003601f168201915b5050505050905084565b60606000606060008411801561087457506000805490508411155b6108b3576040517f08c379a00000000000000000000000000000000000000000000000000000000081526004016108aa90611056565b60405180910390fd5b6000806001866108c391906111cc565b815481106108fa577f4e487b7100000000000000000000000000000000000000000000000000000000600052603260045260246000fd5b90600052602060002090600402016040518060800160405290816000820154815260200160018201805461092d9061128a565b80601f01602080910402602001604051908101604052809291908181526020018280546109599061128a565b80156109a65780601f1061097b576101008083540402835291602001916109a6565b820191906000526020600020905b81548152906001019060200180831161098957829003601f168201915b50505050508152602001600282015481526020016003820180546109c99061128a565b80601f01602080910402602001604051908101604052809291908181526020018280546109f59061128a565b8015610a425780601f10610a1757610100808354040283529160200191610a42565b820191906000526020600020905b815481529060010190602001808311610a2557829003601f168201915b5050505050815250509050806020015181604001518260600151935093509350509193909250565b600260009054906101000a900473ffffffffffffffffffffffffffffffffffffffff1681565b600080600090505b600180549050811015610b5d578273ffffffffffffffffffffffffffffffffffffffff1660018281548110610af6577f4e487b7100000000000000000000000000000000000000000000000000000000600052603260045260246000fd5b9060005260206000200160000160009054906101000a900473ffffffffffffffffffffffffffffffffffffffff1673ffffffffffffffffffffffffffffffffffffffff161415610b4a576001915050610b63565b8080610b55906112ed565b915050610a98565b50600090505b919050565b60018181548110610b7857600080fd5b906000526020600020016000915090508060000160009054906101000a900473ffffffffffffffffffffffffffffffffffffffff16908060000160149054906101000a900460ff16908060000160159054906101000a900460ff16905083565b600160405180606001604052808373ffffffffffffffffffffffffffffffffffffffff168152602001600115158152602001600015158152509080600181540180825580915050600190039060005260206000200160009091909190915060008201518160000160006101000a81548173ffffffffffffffffffffffffffffffffffffffff021916908373ffffffffffffffffffffffffffffffffffffffff16021790555060208201518160000160146101000a81548160ff02191690831515021790555060408201518160000160156101000a81548160ff021916908315150217905550505050565b828054610cce9061128a565b90600052602060002090601f016020900481019282610cf05760008555610d37565b82601f10610d0957805160ff1916838001178555610d37565b82800160010185558215610d37579182015b82811115610d36578251825591602001919060010190610d1b565b5b509050610d449190610d48565b5090565b5b80821115610d61576000816000905550600101610d49565b5090565b6000610d78610d7384611129565b611104565b905082815260208101848484011115610d9057600080fd5b610d9b848285611248565b509392505050565b600081359050610db28161144f565b92915050565b600082601f830112610dc957600080fd5b8135610dd9848260208601610d65565b91505092915050565b600081359050610df181611466565b92915050565b600060208284031215610e0957600080fd5b6000610e1784828501610da3565b91505092915050565b60008060408385031215610e3357600080fd5b600083013567ffffffffffffffff811115610e4d57600080fd5b610e5985828601610db8565b925050602083013567ffffffffffffffff811115610e7657600080fd5b610e8285828601610db8565b9150509250929050565b600060208284031215610e9e57600080fd5b6000610eac84828501610de2565b91505092915050565b610ebe81611200565b82525050565b610ecd81611212565b82525050565b6000610ede8261115a565b610ee88185611165565b9350610ef8818560208601611257565b610f01816113c3565b840191505092915050565b6000610f19600d83611165565b9150610f24826113d4565b602082019050919050565b6000610f3c601183611165565b9150610f47826113fd565b602082019050919050565b6000610f5f601883611165565b9150610f6a82611426565b602082019050919050565b610f7e8161123e565b82525050565b6000602082019050610f996000830184610eb5565b92915050565b6000606082019050610fb46000830186610eb5565b610fc16020830185610ec4565b610fce6040830184610ec4565b949350505050565b6000602082019050610feb6000830184610ec4565b92915050565b6000606082019050818103600083015261100b8186610ed3565b905061101a6020830185610f75565b818103604083015261102c8184610ed3565b9050949350505050565b6000602082019050818103600083015261104f81610f0c565b9050919050565b6000602082019050818103600083015261106f81610f2f565b9050919050565b6000602082019050818103600083015261108f81610f52565b9050919050565b60006020820190506110ab6000830184610f75565b92915050565b60006080820190506110c66000830187610f75565b81810360208301526110d88186610ed3565b90506110e76040830185610f75565b81810360608301526110f98184610ed3565b905095945050505050565b600061110e61111f565b905061111a82826112bc565b919050565b6000604051905090565b600067ffffffffffffffff82111561114457611143611394565b5b61114d826113c3565b9050602081019050919050565b600081519050919050565b600082825260208201905092915050565b60006111818261123e565b915061118c8361123e565b9250827fffffffffffffffffffffffffffffffffffffffffffffffffffffffffffffffff038211156111c1576111c0611336565b5b828201905092915050565b60006111d78261123e565b91506111e28361123e565b9250828210156111f5576111f4611336565b5b828203905092915050565b600061120b8261121e565b9050919050565b60008115159050919050565b600073ffffffffffffffffffffffffffffffffffffffff82169050919050565b6000819050919050565b82818337600083830152505050565b60005b8381101561127557808201518184015260208101905061125a565b83811115611284576000848401525b50505050565b600060028204905060018216806112a257607f821691505b602082108114156112b6576112b5611365565b5b50919050565b6112c5826113c3565b810181811067ffffffffffffffff821117156112e4576112e3611394565b5b80604052505050565b60006112f88261123e565b91507fffffffffffffffffffffffffffffffffffffffffffffffffffffffffffffffff82141561132b5761132a611336565b5b600182019050919050565b7f4e487b7100000000000000000000000000000000000000000000000000000000600052601160045260246000fd5b7f4e487b7100000000000000000000000000000000000000000000000000000000600052602260045260246000fd5b7f4e487b7100000000000000000000000000000000000000000000000000000000600052604160045260246000fd5b6000601f19601f8301169050919050565b7f416c726561647920766f74656400000000000000000000000000000000000000600082015250565b7f496e76616c69642063616e646964617465000000000000000000000000000000600082015250565b7f4f6e6c79206f776e65722063616e2063616c6c20746869730000000000000000600082015250565b61145881611200565b811461146357600080fd5b50565b61146f8161123e565b811461147a57600080fd5b5056fea2646970667358221220f7b154513476e44ac36ac9374f0cebc41aef77f608ccd1a9df3ec62fce9f445c64736f6c63430008030033",
  "immutableReferences": {},
  "source": "// SPDX-License-Identifier: MIT\r\npragma solidity ^0.8.3;\r\n\r\ncontract Voting {\r\n    struct Candidate {\r\n        uint id;\r\n        string name;\r\n        uint voteCount;\r\n        string photoUrl; \r\n    }\r\n\r\n    struct Voter {\r\n        address voterAddress;\r\n        bool registered;\r\n        bool voted;\r\n    }\r\n\r\n    Candidate[] public candidates;\r\n    Voter[] public voters;\r\n    address public owner;\r\n    uint public candidatesCount;\r\n    event VotedEvent(uint candidateId);\r\n\r\n    modifier onlyOwner() {\r\n        require(msg.sender == owner, \"Only owner can call this\");\r\n        _;\r\n    }\r\n\r\n    constructor() {\r\n        owner = msg.sender;\r\n        addCandidate(\"Donald Trump\", \"/assets/trump.png\");\r\n        addCandidate(\"Kamala Harris\", \"/assets/kamala.png\");\r\n    }\r\n\r\n    function addCandidate(string memory _name, string memory _photoUrl) public onlyOwner {\r\n        candidates.push(Candidate(candidatesCount + 1, _name, 0, _photoUrl));\r\n        candidatesCount++;\r\n    }\r\n\r\n    //  \r\n    function registerVoter(address voterAddress) internal {\r\n        voters.push(Voter(voterAddress, true, false));\r\n    }\r\n\r\n    // ,   \r\n    function isRegistered(address voterAddress) public view returns (bool) {\r\n        for (uint i = 0; i < voters.length; i++) {\r\n            if (voters[i].voterAddress == voterAddress) {\r\n                return true;\r\n            }\r\n        }\r\n        return false;\r\n    }\r\n\r\n    // ,   \r\n    function hasVoted(address voterAddress) public view returns (bool) {\r\n        for (uint i = 0; i < voters.length; i++) {\r\n            if (voters[i].voterAddress == voterAddress) {\r\n                return voters[i].voted;\r\n            }\r\n        }\r\n        return false;\r\n    }\r\n\r\n    // \r\n    function vote(uint candidateId) public {\r\n        require(candidateId > 0 && candidateId <= candidates.length, \"Invalid candidate\");\r\n\r\n        //  \r\n        if (!isRegistered(msg.sender)) {\r\n            registerVoter(msg.sender); //   , \r\n        }\r\n\r\n        // ,   \r\n        require(!hasVoted(msg.sender), \"Already voted\");\r\n\r\n        //       ,  \r\n        for (uint i = 0; i < voters.length; i++) {\r\n            if (voters[i].voterAddress == msg.sender) {\r\n                voters[i].voted = true;\r\n                break;\r\n            }\r\n        }\r\n\r\n        //     \r\n        candidates[candidateId - 1].voteCount++;\r\n\r\n        emit VotedEvent(candidateId);\r\n    }\r\n\r\n    //    \r\n    function getCandidate(uint candidateId) public view returns (string memory, uint, string memory) {\r\n        require(candidateId > 0 && candidateId <= candidates.length, \"Invalid candidate\");\r\n        Candidate memory candidate = candidates[candidateId - 1];\r\n        return (candidate.name, candidate.voteCount, candidate.photoUrl);\r\n    }\r\n\r\n}\r\n",
  "sourcePath": "E:\\University\\4th Course\\. \\\\voting-app\\contracts\\Voting.sol",
  "compiler": {
    "name": "solc",
    "version": "0.8.3+commit.8d00100c.Emscripten.clang"
  },
  "schemaVersion": "3.4.16",
  "updatedAt": "2024-11-22T18:52:39.426Z",
  "networkType": "ethereum",
  "devdoc": {
    "kind": "dev",
    "methods": {},
    "version": 1
  },
  "userdoc": {
    "kind": "user",
    "methods": {},
    "version": 1
  }
}